:020000040800F2
:1000000000800120790C00082D0300082F03000850
:100010003103000833030008350300080000000026
:10002000000000000000000000000000370300088E
:1000300039030008000000003B0300083D030008EE
:10004000C90C0008C90C0008C90C0008C90C00083C
:10005000C90C0008C90C0008C90C0008C90C00082C
:10006000C90C0008C90C0008C90C0008C90C00081C
:10007000C90C0008C90C0008C90C0008C90C00080C
:10008000C90C0008C90C0008C90C000800000000D9
:10009000000000000000000000000000C90C000883
:1000A000C90C0008C90C0008C90C0008C90C0008DC
:1000B000C90C0008C90C0008C90C0008C90C0008CC
:1000C000C90C0008C90C0008C90C0008C90C0008BC
:1000D000C90C0008C90C0008C90C00080000000089
:1000E000C90C0008C90C0008C90C00080000000079
:1000F000000000000000000000000000C90C000823
:1001000000000000C90C0008C90C0008C90C000858
:1001100000000000000000000000000000000000DF
:10012000C90C0008C90C0008C90C0008C90C00085B
:10013000C90C0008000000000000000000000000E2
:10014000000000000000000000000000C90C0008D2
:10015000C90C0008C90C0008C90C0008C90C00082B
:10016000C90C0008C90C00080000000000000000D5
:10017000000000000000000000000000000000007F
:1001800000000000C90C0008000000000000000092
:04019000C90C00088E
:1001940053B94AB9002908BF00281CBF4FF0FF31EA
:1001A4004FF0FF3000F00CB8ADF1080C6DE904CE4F
:1001B40001F082FCDDF804E0DDE9022304B07047BD
:1001C400704700BF0348044B834202D0034B03B182
:1001D400184770470C0000200C00002000000000AD
:1001E4000548064B1B1AD90F01EBA301491002D095
:1001F400034B03B1184770470C0000200C0000208B
:100204000000000010B5064C237843B9FFF7DAFF6D
:10021400044B13B10448AFF300800123237010BDD5
:100224000C00002000000000781D000808B5054BF4
:100234001BB105490548AFF30080BDE80840FFF74E
:10024400CFBF00BF0000000010000020781D000890
:1002540072B6FEE700B595B03022002108A801F07F
:10026400F1FB0023039304930593069307930193EF
:10027400194A116C41F080511164126C02F08052E1
:100284000192019A029315490A6822F4404242F409
:1002940000420A600A6802F440420292029A022270
:1002A400089201220B9210220C920E9308A800F0DF
:1002B4000DF968B90F230393002104910591069168
:1002C400079103A800F052FB20B915B05DF804FBB8
:1002D400FFF7BEFFFFF7BCFF00380240007000408C
:1002E40008B500F05DF8FFF7B5FF00F0EDFCFEE7A0
:1002F40082B0002100910B4B5A6C42F480425A6444
:100304005A6C02F480420092009A01911A6C42F0F5
:1003140080521A641B6C03F080530193019B02B05A
:10032400704700BF00380240FEE7FEE7FEE7FEE745
:10033400FEE770477047704708B500F04BF808BDFA
:10034400034AD2F8883043F47003C2F88830704707
:1003540000ED00E010B504460E4B1A784FF47A73A2
:10036400B3FBF2F30C4A1068B0FBF3F000F09AF818
:1003740068B90F2C01D901200AE0002221464FF070
:10038400FF3000F07FF8054B1C60002000E00120E6
:1003940010BD00BF04000020000000200800002061
:1003A40008B50B4B1A6842F400721A601A6842F4DA
:1003B40080621A601A6842F480721A60032000F0A6
:1003C4004FF80F20FFF7C6FFFFF792FF002008BD8C
:1003D400003C0240034A1168034B1B780B44136032
:1003E400704700BF2800002004000020014B18685B
:1003F400704700BF28000020002808DB0901C9B2AB
:1004040000F1604000F5614080F80013704700F08F
:100414000F000901C9B2014B1954704714ED00E0F3
:1004240000B500F00700C0F1070CBCF1040F28BFB1
:100434004FF0040C031D062B0FD9C31E4FF0FF3ED3
:100444000EFA0CF021EA000199400EFA03FE22EAAA
:100454000E0241EA02005DF804FB0023EEE700000F
:10046400074AD36823F4E0631B041B0C000200F466
:10047400E060034343F0BF6343F40033D360704749
:1004840000ED00E010B50446054BD868C0F3022027
:10049400FFF7C6FF01462046FFF7AEFF10BD00BFC1
:1004A40000ED00E00138B0F1807F0BD24FF0E02383
:1004B4005861054AF02182F8231000209861072230
:1004C4001A6170470120704700ED00E0002800F039
:1004D400E08170B582B00446036813F0010F3BD08D
:1004E4009F4B9B6803F00C03042B2CD09C4B9B6804
:1004F40003F00C03082B21D06368B3F5803F4FD081
:10050400B3F5A02F52D0964B1A6822F480321A60A9
:100514001A6822F480221A606368002B50D0FFF717
:1005240065FF05468E4B1B6813F4003F14D1FFF79B
:100534005DFF401B6428F5D90320B1E1884B5B685B
:1005440013F4800FD8D0864B1B6813F4003F03D0FC
:100554006368002B00F09F81236813F0020F54D0CE
:100564007F4B9B6813F00C0F3ED07D4B9B6803F0D0
:100574000C03082B33D0E368002B68D0794B01229D
:100584001A60FFF733FF0546754B1B6813F0020F23
:1005940054D1FFF72BFF401B0228F5D903207FE13C
:1005A4006F4A136843F480331360B5E76C4B1A68E1
:1005B40042F480221A601A6842F480321A60ABE76F
:1005C400FFF714FF0546664B1B6813F4003FC3D0C6
:1005D400FFF70CFF401B6428F5D9032060E1604B52
:1005E4005B6813F4800FC6D15D4B1B6813F0020FD8
:1005F40003D0E368012B40F05081594A136823F07B
:10060400F803216943EAC1031360236813F0080F58
:1006140042D063696BB3534B0122C3F8802EFFF7BA
:10062400E5FE05464E4B5B6F13F0020F34D1FFF726
:10063400DDFE401B0228F5D9032031E1484A136846
:1006440023F0F803216943EAC1031360DDE7454B56
:1006540000221A60FFF7CAFE0546414B1B6813F0DF
:10066400020FD2D0FFF7C2FE401B0228F5D90320A7
:1006740016E13C4B0022C3F8802EFFF7B7FE054677
:10068400374B5B6F13F0020F06D0FFF7AFFE401B32
:100694000228F5D9032003E1236813F0040F77D06F
:1006A4002F4B1B6C13F0805F33D1002301932C4B31
:1006B4001A6C42F080521A641B6C03F0805301934D
:1006C400019B0125284B1B6813F4807F23D0A3686A
:1006D400012B34D0052B38D0214B1A6F22F00102A4
:1006E4001A671A6F22F004021A67A368002B3DD020
:1006F400FFF77CFE06461A4B1B6F13F0020F46D120
:10070400FFF774FE801B41F288339842F3D903202B
:10071400C6E00025D6E7144A136843F480731360D7
:10072400FFF764FE0646104B1B6813F4807FCED19E
:10073400FFF75CFE801B0228F5D90320B0E0084ACD
:10074400136F43F001031367CFE7054B1A6F42F0B1
:1007540004021A671A6F42F001021A67C5E700BF64
:10076400003802400000474200700040FFF73EFEA0
:100774000646524B1B6F13F0020F08D0FFF736FEEC
:10078400801B41F288339842F3D9032088E0EDB905
:10079400A369002B00F08380484A926802F00C029F
:1007A400082A51D0022B17D0454B00221A66FFF7B6
:1007B4001DFE0446414B1B6813F0007F42D0FFF737
:1007C40015FE001B0228F5D9032069E03B4A136C8F
:1007D40023F080531364DBE7394B00221A66FFF7DA
:1007E40005FE0546354B1B6813F0007F06D0FFF766
:1007F400FDFD401B0228F5D9032051E0E369226A7C
:100804001343626A43EA8213A26A5208013A43EA32
:100814000243E26A43EA0263284A5360284B0122F6
:100824001A66FFF7E3FD0446244B1B6813F0007FB0
:1008340006D1FFF7DBFD001B0228F5D903202FE0CA
:1008440000202DE000202BE0012B2BD01B4B5B68FC
:1008540003F48001E269914226D103F03F02216A48
:100864008A4223D1616A47F6C0721A40B2EB811FF3
:100874001ED103F44031A26A5208013AB1EB024F8F
:1008840018D103F07063E26AB3EB026F14D1002055
:1008940006E001207047012002E0012000E0002072
:1008A40002B070BD0120FBE70120F9E70120F7E762
:1008B4000120F5E70120F3E70120F1E700380240C9
:1008C4000000474208B5264B9B6803F00C03042B39
:1008D40041D0082B41D1224B5A6802F03F025B6899
:1008E40013F4800F12D01E4B5968C1F388111D48B0
:1008F4000023A1FB0001FFF74BFC194B5B68C3F31A
:10090400014301335B00B0FBF3F027E0144B58685C
:10091400C0F388104FEA401CBCEB000C6EEB0E0ECB
:100924004FEA8E1343EA9C634FEA8C11B1EB0C013E
:1009340063EB0E03DB0043EA5173C90011EB000CB7
:1009440043F10003990200234FEA8C2041EA9C51B1
:10095400FFF71EFCD1E7034800E0034808BD00BFD1
:100964000038024040787D010024F400002800F0A3
:100974009B8070B50D4604464F4B1B6803F007037C
:100984008B4208D2CBB24C4A1370136803F00703AE
:100994008B4240F08B80236813F0020F17D013F0C2
:1009A400040F04D0454A936843F4E05393602368EA
:1009B40013F0080F04D0414A936843F460439360F2
:1009C4003E4A936823F0F003A1680B4393602368C5
:1009D40013F0010F32D06368012B21D09A1E012A33
:1009E40025D9364A126812F0020F61D033498A6859
:1009F40022F0030213438B60FFF7F8FC06462F4BEB
:100A04009B6803F00C036268B3EB820F16D0FFF708
:100A1400EDFC801B41F288339842F0D9032042E078
:100A2400264A126812F4003FE0D101203BE0234A39
:100A3400126812F0007FD9D1012034E01E4B1B68EC
:100A440003F00703AB4207D9EAB21B4B1A701B68C9
:100A540003F00703AB422DD1236813F0040F06D033
:100A6400164A936823F4E053E1680B4393602368C8
:100A740013F0080F07D0114A936823F460432169E7
:100A840043EAC1039360FFF71DFF0C4B9B68C3F35C
:100A940003130B4AD35CD8400A4B18600A4B1868FE
:100AA400FFF758FC002070BD012070470120FAE7D1
:100AB4000120F8E70120F6E7003C0240003802403C
:100AC400081E000800000020080000202DE9F04165
:100AD4002DED048B80460F461646002456E0A500F3
:100AE40006EB840393ED008AB0EE480A00F03CF96B
:100AF400B0EE409AB0EE480A00F06EF9B0EE408ACB
:100B04003D44D5ED009AB0EE690A00F02DF9F0EEFF
:100B1400408AB0EE690A00F05FF92A6B95ED067A17
:100B2400F1EE484A28EE285A69EE285AB1EE406A96
:100B340060EE476A28EE008A69EE007A28EE877A2A
:100B440008EB841383ED1E9AC3ED1F4A0025C3F8F6
:100B54008050C3F8842083ED225AC3ED235A83EDD9
:100B6400246AC3ED256A83ED268AC3ED277AC3ED93
:100B7400288A83ED297AC3F8A850C3F8AC50C3F887
:100B8400B0504FF07E52C3F8B4200134052CA6D9DE
:100B9400BDEC048BBDE8F08130B504460D46002061
:100BA40023E004EB001305EB0C1E03EB8C030EEBAC
:100BB400810E93ED007ADEED007A27EE277A02EBC0
:100BC400001303EB8103D3ED007A77EE877AC3ED4C
:100BD400007A0CF1010CBCF1030FE2D901310329B5
:100BE40002D84FF0000CF6E70130032801D80021A9
:100BF400F5E730BD70B590B0054600F5FC744022B1
:100C04000021204600F01EFF05F1780CBCE80F001F
:100C14000FC4BCE80F000FC4BCE80F000FC49CE86D
:100C24000F0084E80F0000261FE0402200216846E0
:100C340000F008FF05F5FC7C013605F178016A46F1
:100C440001EB861164466046FFF7A6FFA4466C4696
:100C54000FCCACE80F000FCCACE80F000FCCACE825
:100C64000F0094E80F008CE80F00042EDDD910B0BB
:100C740070BD0000DFF834D00D480E490E4A002341
:100C840002E0D458C4500433C4188C42F9D30B4A3C
:100C94000B4C002301E013600432A242FBD3FFF7A4
:100CA4004FFB00F0D7FEFFF71BFB704700800120CD
:100CB400000000200C000020F82100080C00002097
:100CC4002C000020FEE7000030B5ADF54B7D244C30
:100CD40060222146B2A800F0E1FE0DF52C7E04F15D
:100CE400600CBCE80F00AEE80F009CE803008EE83F
:100CF4000300ACAB07E0D3ED007A9FED1A7A67EE00
:100D0400877AE3EC017AB2AA9342F4D160252A46A9
:100D1400B2A906A800F0C2FE6C460DF52C7CBCE816
:100D24000F000FC49CE8030084E803002A4606A9C8
:100D34001EA800F0B3FE36ACEC46BCE80F000FC4AE
:100D44009CE8030084E80300ACAAB2A91EA8FFF73C
:100D5400BDFE1EA8FFF74EFF00200DF54B7D30BDF4
:100D6400901D000835FA8E3C10EE103A184923F015
:100D740000428A421BD9B2F1FF4F02D330EE400A3F
:100D8400704700B583B0684600F02AF900F003000C
:100D94000128DDED010A9DED000A0CD0022812D0D5
:100DA40070B1012000F0D4F803B05DF804FBDFED6E
:100DB400090A00F04BB800F0CBF8B1EE400AF3E7B3
:100DC40000F044F8F0E700F041F8B1EE400AEBE738
:100DD400D80F493F0000000010EE103A194923F0E3
:100DE40000428A421CD9B2F1FF4F02D330EE400ACE
:100DF400704700B583B0684600F0F2F800F00300D5
:100E04000128DDED010A9DED000A0ED0022813D061
:100E140070B100F01BF8B1EE400A03B05DF804FBBA
:100E2400DFED090A002000F093B800F00FF8F4E7B2
:100E3400012000F08DF8F0E7012000F089F8B1EE10
:100E4400400AEAE7D80F493F0000000010EE103ACC
:100E540023F00043B3F1485F2CD2FDEEC07A17EEC5
:100E6400903A002B60D060EE007A9FED317A9FEDCE
:100E7400315ADFED315A9FED316ADFED316AA7EE69
:100E8400875A9FED307AE5EE275AA7EEA56AA7EEBA
:100E9400867AE7EE876A67EEA66A60EEC00AB6EE67
:100EA400007AE7EEA60AB7EE000AD7EE870A30EE1C
:100EB400600A704760EE007A9FED1D7A9FED1D5A1F
:100EC400DFED1D5A9FED1D6ADFED1D6A1E4AA7EE78
:100ED400875A93429FED1B7AE5EE275AA5EEA76A3F
:100EE400A6EE277AE7EE276A66EEA76AD5D9174AEF
:100EF400934214D803F17F4307EE103AB7EE006A29
:100F040036EE476A60EEC00AF6EE005A97EEA57A0E
:100F1400E7EEA60A37EE607A36EE470A7047B6EE79
:100F2400076AB5EE027AEDE7B7EE000A704700BF34
:100F34004ED747ADF6740F317CF293B4010DD03720
:100F4400ABAA2A3D610BB6BA9999993E0000483F75
:100F540010EE103A23F00043B3F1485F04D2FDEEE3
:100F6400C07A17EE903A5BB360EE007A9FED157A83
:100F7400DFED155A9FED156ADFED156AE7EE875A26
:100F84009FED147AA5EEA76A20EE275AE6EE276AAB
:100F9400A6EEA77A30B9DFED106AE7EE876AA6EE0F
:100FA400850A704727EE457AF6EE006AA0EEA67A27
:100FB400DFED0A6AD7EE270AE5EE260A30EE600A6C
:100FC400704700BFD3C92E2F342FD7B21BEF38364A
:100FD400010D50B98988083CABAA2ABEABAA2A3EA7
:100FE40070B510EE103A884A23F00044944286B05B
:100FF400054671D9854A94421E4624D823F00046FA
:10100400002BDFED837A834A26F00F06B0EE407A98
:1010140040F3E080964270EE677A09BF9FED7E7AD6
:10102400DFED7E6ADFED7E6A77EEC77A37EEE67A29
:1010340077EEC77A80ED007A77EEE67AC0ED017A32
:10104400012006B070BD774A944252D9B4F1FF4FE3
:1010540048D2E215863AA4EBC25307EE903ABDEEAD
:10106400E77ADFED716AB8EEC77A77EEC77A8DED6D
:10107400037A67EEA67ABDEEE77AB8EEC77A77EE22
:10108400C77A8DED047A67EEA67AF5EE407AF1EE32
:1010940010FACDED057A40F09880B5EE407AF1EE85
:1010A40010FA0CBF0123022360490191022100912F
:1010B40003A8294600F0CCF8002EC2DA95ED007A98
:1010C400D5ED017AB1EE477AF1EE677A85ED007AD3
:1010D400C5ED017A4042B4E7002285ED000A426082
:1010E4000020AEE770EE407AC0ED017AC0ED007AE0
:1010F400F6E700F0A5F89FED4E7A9FED456AF6EE0F
:10110400007AE0EE077A9FED457AFDEEE77A17EE76
:10111400900AF8EEE76A1F28A6EEC60A66EE877AFA
:10112400B1EE666A20DC434A411E26F0004352F8C1
:10113400212023F0FF03934216D030EE677A30EE7D
:10114400470A002E30EE670A85ED007A85ED010A24
:10115400BFF677AFB1EE477AB1EE400A85ED007A7B
:1011640085ED010A40426CE730EE677AE21517EE2E
:10117400103AC3F3C753C3EBD453082BDFDD9FED01
:10118400267A9FED275AF0EE405AE6EE075A70EEA3
:10119400657AE6EE077AD6EE857A35EEE77A17EECB
:1011A400103AC3F3C753D21A192A10DD9FED227ADD
:1011B4009FED225AB0EE650AA6EE070A75EEC07AD4
:1011C400E6EE077AD6EE857AB7E703236CE7B0EE4E
:1011D400650AB4E7964270EE277A09BF9FED0E7A4E
:1011E400DFED0E6ADFED0E6A77EE877A37EEA67AC8
:1011F40077EEC77A80ED007A77EEA67AC0ED017AB1
:101204004FF0FF301DE700BFD80F493FE3CB164036
:10121400800FC93FD00FC93F0044353743443537A9
:1012240008A3852E800F494300008043981E0008C0
:1012340084F9223F181E000800A3852E32318D2424
:1012440010EE103A23F0004300EE103A704700BF4E
:101254002DE9F04F2DED048BDBB00C468146114691
:101264006898964A04931E4623460C1D52F8205053
:1012740006F1FF37C0F2B082CA1E48BF0A1DD21061
:1012840003920132D2000692069A0398EE19A1EB5A
:101294000202A0EB070019D401369FED897ADDF82C
:1012A400A4C106441EAC9E460028A4BF5CF82030AE
:1012B40007EE903A00F10100ACBFF8EEE77AF0EEE9
:1012C400477AB042E4EC017AEED17346002DC0F2C5
:1012D400D98204981EAC04EB80064FEA800805EB23
:1012E400000E0DF58C7C3C4609EB8000002FDFEDF1
:1012F400747A09DBB346CA46FAEC016A3BED017A1B
:101304008245E6EE877AF7D101347445ECEC017A34
:1013140006F10406EAD10DF1280A0AEB8500CDE9AD
:10132400073104389FED689ADFED668A059009EB72
:101334000804AB460AEB850846AE019510465AAB45
:1013440003EB8B03BBF1000F13ED140A16DD06EB60
:101354008B03524660EE097AB0EE407AFDEEE77AEE
:1013640073ED016AF8EEE77AB342A7EEE87A37EE56
:10137400A60ABDEEC77AA2EC017AEBD1029000F086
:10138400A5FAF4EE007AB0EE408A20EE270A00F0C7
:101394000FFBF2EE007AA0EE678A02980028FDEEB9
:1013A400C89AF8EEE97A38EE678A6EDD0BF1FF3CF5
:1013B400C0F108035AF82C2042FA03F505FA03F3A6
:1013C400D21AC0F1070119EE903A42FA01F12B4406
:1013D40000294AF82C2009EE903A00F34B81B5EE2F
:1013E400408AF1EE10FA40F0BA80019B9B450BDD78
:1013F4000AEB8B03002253F8045D434542EA0502DD
:10140400F9D1002A40F05481019B013B5AF8233062
:10141400002B40F04481059B012153F8042D013138
:10142400002AFAD00BF1010359449C46039D049A07
:1014340005EB030E0EF1804E699D5A440EF1FF3EFA
:1014440006EB830B1EAB05EB8E0E03EB8205DEED84
:10145400017AF8EEE77A002F0EF1040EE5EC017A3A
:10146400DFED177A09DB2A464B46F3EC016A32EDCD
:10147400017AA342E6EE877AF7D10CF1010C6145BB
:10148400EBEC017AE3DA8B4659E740F0E9800BF1A3
:10149400FF335AF82310C9110029A0DD19EE903A40
:1014A400BBF1000F03F1010309EE903A40F3EE8122
:1014B4000025D4462A460291864619E0DC2100081C
:1014C40000000000000080430000803B0135AB4574
:1014D40041F8040C40F3E8800B680CF1080C01356A
:1014E400C3F1FF03AB454FF001024CF8043C0DDDA2
:1014F400614651F8043B002A40F0B080C3F5807087
:10150400002BE3D10135AB458C46F1DC02997046E2
:1015140000280CDD012800F0B980022807D10BF166
:10152400FF355AF8253003F03F034AF825300229E5
:101534007FF455AFB7EE000A30EE488A002A3FF434
:101544004EAF0991029000F0C1F938EE408A02983A
:101554000999B5EE408AF1EE10FA3FF446AF079BC5
:10156400019D01938846069B08990290B0EE480AB3
:10157400581A00F0ABF95FED2D6AB4EEE60AF1EE0D
:1015840010FADDE90132F0EE407AC0F24D811FED30
:10159400327A20EE077A0BF10104BDEEC77A0832E5
:1015A400B8EEC77AE7EE667ABDEEC77AFDEEE77A63
:1015B40017EE901A4AF82B1017EE101A4AF8241056
:1015C4001046B7EE000A019300F080F9002C019B4D
:1015D400B0EE407AC0F24C81601C46AE5FED466AC4
:1015E40081000AEB800206EB800072ED017AF8EECE
:1015F400E77A524567EE877A27EE267A60ED017A1C
:10160400F3D10A1F46A8002D00EB02074FF0000695
:101614009C4620DBAB4BDFEDAC7A3846002201E080
:10162400B24208DCF3EC016AB0EC017A0132954273
:10163400E6EE877AF4DA5AAB03EB8602A64242ED71
:10164400287A4FEA860006F10102A7F1040747D081
:10165400002D1646DEDADFED9C7AECE78C463EE799
:10166400F6EE007AB4EEE78AF1EE10FA80F2A28088
:101674000021B4E60133BBF1000F09EE903AD8BF64
:1016840000223FF715AF01287FF447AF0BF1FF3578
:101694005AF8253003F07F034AF8253047E70BF169
:1016A40001039C461946C1E60299704601222FE7C0
:1016B4000BF1FF3488465AF82410019D079BA0F1D2
:1016C400080200297FF47CAF0BF1804101390AEB59
:1016D400810151F8040D013C083A0028F9D06FE764
:1016E400689A022A63461BDC002A7ADC0FD132AAEC
:1016F400DFED757A114431ED017A914277EE877A04
:10170400F9D142460AB1F1EE677AC3ED007A19EED7
:10171400903A03F007005BB0BDEC048BBDE8F08F9A
:10172400689A032AF3D1002C00F0BC8032A90D186A
:1017340095ED007A01EB8400A700064656ED017A88
:10174400F0EE476A37EE277A324677EEC77A043EE0
:1017540077EEA67AB142C2ED007A02ED017AEDD1BC
:10176400012C00F09F8095ED007A70ED017AF0EE87
:10177400476A37EE277A824277EEC77A80ED007A9D
:1017840077EEA67AC0ED017AEFD1381DDFED4E7AFF
:101794000144043231ED017A8A4277EE877AF9D135
:1017A4004246002A48D13299339A19605A60C3EDEF
:1017B400027AACE719EE903ABBF1000F03F1010392
:1017C40009EE903AC8BF02213FF772AEF7EE007AF5
:1017D40037EEC88A022102E608220692002203920A
:1017E40052E532AADFED387A114431ED017A8A42AA
:1017F40077EE877AF9D142467ABB9DED327AC3ED12
:10180400007A77EE677A64B133A90122B1EC017AE8
:101814000132944277EE877AF8DA42460AB1F1EE61
:10182400677AC3ED017A72E7FDEEC07A5C4617EE83
:10183400901A4AF82B10C3E6DDED326A9DED337A37
:10184400F1EE666AB1EE477AF1EE677AC3ED006AAB
:1018540083ED017AC3ED027A59E7DDED326AB1EE28
:10186400677A83ED007A76EEE77A002CCCD1D6E75E
:10187400689A022A12DC002A17DC7FF448AFDFEDF5
:10188400127A3EE704984FEA800844E502297FF47F
:10189400A6ADF7EE007A37EEC88AA0E5689A032A67
:1018A4007FF435AFDFED087A7AE7424622B90022A9
:1018B400DDED327A1A60B4E74FF00042DDED327AA2
:1018C4001A60ACE7B02100080000000010EE103AE6
:1018D40033F000411A4627D0B1F1FF4F21D213F063
:1018E400FF4F22D1DFED2B7A2B4A60EE277A90420C
:1018F40017EE903A33DB4CF2503CC3F3C7516045CA
:101904001A46A1F1190116DDDFED247ADFED246A10
:10191400002BB0EE677AB8BFF0EE667A27EE870A3E
:10192400704730EE000A704770474CF2503C6045F7
:101934004FEAD151E8DC0144FE29E5DC002915DC3D
:1019440011F1160F19DB193122F0FF4242EAC1529C
:1019540007EE902A9FED130A27EE800A7047DFED09
:10196400127A07EE103A27EE270A704722F0FF4258
:1019740042EAC15300EE103A7047DFED0B7ADFED17
:101984000B6A002BB0EE677AB8BFF0EE667A27EEEA
:10199400870A70470000004CB03CFFFFCAF249714F
:1019A400CAF249F1000000336042A20D6042A28DE8
:1019B40010EE102AC2F3C7537F3B162B22F00041CE
:1019C40029DC002B104618DB1A4919410A4221D0A0
:1019D400DFED197A70EE277AF5EEC07AF1EE10FA9F
:1019E40018DD002A04DA4FF4000242FA03F3184423
:1019F40020EA010300EE103A7047DFED0F7A70EE33
:101A0400277AF5EEC07AF1EE10FA03DD002A08DB3E
:101A14009FED0A0A7047B1F1FF4FFBD330EE000A85
:101A24007047DFED077A0029BFEE000A08BFB0EE69
:101A3400670A7047FFFF7F00CAF249710000000087
:101A44000000008002440346934200D1704703F82B
:101A5400011BF9E770B50D4D0D4C641BA410002655
:101A6400A64209D10B4D0C4C00F084F9641BA41060
:101A74000026A64205D170BD55F8043B98470136AF
:101A8400EEE755F8043B98470136F2E7F0210008E9
:101A9400F0210008F0210008F42100080A449142D2
:101AA40000F1FF3300D1704710B511F8014B03F872
:101AB400014F9142F9D110BD2DE9F047089D0C4624
:101AC400002B4ED194468C458646B2FA82F262D9F6
:101AD4004AB1C2F12003914020FA03F30CFA02FC4C
:101AE400194300FA02FE4FEA1C471FFA8CF6B1FBB9
:101AF400F7F44FEA1E4307FB141143EA014304FBC6
:101B040006F199420AD91CEB030304F1FF3080F07B
:101B14001381994240F21081023C6344591A1FFA1E
:101B24008EF3B1FBF7F007FB101143EA014300FB0E
:101B340006F69E420AD91CEB030300F1FF3180F044
:101B4400FD809E4240F2FA80634402389B1B40EAC7
:101B5400044000211DB1D3400022C5E90032BDE894
:101B6400F0878B4205D90DB1C5E900010021084673
:101B7400F5E7B3FA83F1002946D1A34202D3904298
:101B8400C0F0F180861A64EB03030120002DE6D037
:101B9400C5E90063E3E7002A40F09180A1EB0C045F
:101BA4004FEA1C481FFA8CF70121B4FBF8F64FEA00
:101BB4001E4308FB164443EA044307FB06F098421D
:101BC40008D91CEB030306F1FF3402D2984200F259
:101BD400CE8026461C1A1FFA8EF3B4FBF8F008FBDD
:101BE400104443EA044300FB07F79F4208D91CEB67
:101BF400030300F1FF3402D29F4200F2B180204679
:101C0400DB1B40EA0640A5E7C1F120068B4022FA1F
:101C140006F71F4320FA06FC04FA01F343EA0C0317
:101C2400F44000FA01F8380C4FEA1349B4FBF0FE13
:101C34001FFA87FC00FB1E4449EA04440EFB0CF91E
:101C4400A14502FA01F20AD93C190EF1FF3A80F0DB
:101C54008580A14540F28280AEF1020E3C44A4EBA3
:101C640009041FFA83F9B4FBF0F300FB134449EAB7
:101C7400044403FB0CFCA44507D93C1903F1FF30D1
:101C840068D2A44566D9023B3C4443EA0E40A0FB1B
:101C94000293A4EB0C049C42CE469C4652D34FD0F4
:101CA40055B1B8EB0E0364EB0C0404FA06F6CB4012
:101CB400CC401E43C5E900640021BDE8F087C2F1B1
:101CC400200320FA03F10CFA02FC24FA03F39440F3
:101CD4000C434FEA1C4800FA02FE1FFA8CF7B3FBD0
:101CE400F8F008FB1031230C43EA014300FB07F131
:101CF400994208D91CEB030300F1FF362CD2994218
:101D04002AD9023863445B1AA4B2B3FBF8F108FB86
:101D1400113344EA034401FB07F3A34208D91CEB43
:101D2400040401F1FF3613D2A34211D902396444E9
:101D3400E41A41EA004138E70446EFE6084605E7BD
:101D4400C845ADD2B9EB020E63EB070C0138A7E727
:101D54003146EDE7034698E73046D4E7D6467EE7BA
:101D6400634402384CE70646234608460EE7023E23
:101D740063442FE7F8B500BFF8BC08BC9E46704723
:0C1D8400F8B500BFF8BC08BC9E467047D4
:101D9000CDCCCC3DCDCC4C3E9A99993ECDCCCC3ED1
:101DA0000000003F9A99193F0000803F000000406A
:101DB00000004040000080400000A0400000C04003
:101DC000000020410000A0410000F041000020423E
:101DD00000004842000070420000C8420000484332
:101DE000000096430000C8430000FA430000164478
:101DF0000000B4420000344200003443000034428A
:101E0000000087430000B442000000000000000012
:101E10000102030406070809000FC93F000F4940EB
:101E200000CB9640000FC9400053FB4000CB164149
:101E300000ED2F41000F49410031624100537B41C9
:101E4000003A8A4100CB9641005CA34100EDAF41CE
:101E5000007EBC41000FC94100A0D5410031E241E4
:101E600000C2EE410053FB4100F20342003A0A4235
:101E70000083104200CB164200141D42005C234236
:101E800000A5294200ED2F4200363642007E3C423A
:101E900000C74242000F4942A2000000F9000000C2
:101EA000830000006E0000004E00000044000000AF
:101EB0001500000029000000FC00000027000000C1
:101EC00057000000D1000000F500000034000000C1
:101ED000DD000000C0000000DB0000006200000028
:101EE00095000000990000003C0000004300000045
:101EF0009000000041000000FE00000051000000C2
:101F000063000000AB000000DE000000BB0000002A
:101F1000C500000061000000B700000024000000C0
:101F20006E0000003A000000420000004D0000007A
:101F3000D2000000E00000000600000049000000A0
:101F40002E000000EA00000009000000D10000009F
:101F5000920000001C000000FE0000001D000000B8
:101F6000EB0000001C000000B10000002900000090
:101F7000A70000003E000000E80000008200000012
:101F800035000000F50000002E000000BB0000003E
:101F90004400000084000000E90000009C000000F4
:101FA0007000000026000000B40000005F00000088
:101FB0007E00000041000000390000009100000098
:101FC000D60000003900000083000000530000002C
:101FD00039000000F40000009C00000084000000B4
:101FE0005F0000008B000000BD000000F900000051
:101FF000280000003B0000001F000000F800000067
:1020000097000000FF000000DE0000000500000057
:10201000980000000F000000EF0000002F000000FB
:10202000110000008B0000005A0000000A000000B0
:102030006D0000001F0000006D0000003600000071
:102040007E000000CF00000027000000CB00000051
:1020500009000000B70000004F000000460000002B
:102060003F000000660000009E0000005F000000CE
:10207000EA0000002D0000007500000027000000AD
:10208000BA000000C7000000EB000000E5000000FF
:10209000F10000007B0000003D0000000700000090
:1020A00039000000F70000008A0000005200000024
:1020B00092000000EA0000006B000000FB0000003E
:1020C0005F000000B10000001F0000008D00000054
:1020D0005D00000008000000560000000300000042
:1020E0003000000046000000FC0000007B00000003
:1020F0006B000000AB000000F0000000CF0000000B
:10210000BC000000200000009A000000F400000065
:10211000360000001D000000A9000000E3000000E0
:1021200091000000610000005E000000E600000079
:102130001B0000000800000065000000990000007E
:10214000850000005F00000014000000A0000000F7
:1021500068000000400000008D000000FF0000004B
:10216000D8000000800000004D0000007300000057
:1021700027000000310000000600000006000000FB
:102180001500000056000000CA00000073000000A7
:10219000A8000000C900000060000000E20000008C
:1021A0007B000000C00000008C0000006B000000FD
:1021B0000000C93F0000F0390000DA370000A23308
:1021C0000000842E0000502B0000C2270000D02207
:1021D0000000C41F0000C61B0000441704000000DC
:0821E0000700000009000000E7
:0821E800D4F8FF7F01000000A4
:0421F00031020008B0
:0421F40009020008D4
:0C21F8000024F4000100000010000000B2
:0400000508000C796A
:00000001FF
